:020000040800F2
:1000000090220020091C0008A9060008E7A70008A4
:10001000AB060008AF060008B306000800000000A9
:10002000000000000000000000000000B70600080B
:100030001D1C00080000000033A70008C7050008C9
:10004000231C0008231C0008231C0008231C000894
:10005000231C0008231C0008F50B0008070C0008EF
:10006000190C00082B0C00083D0C0008231C00088C
:10007000231C0008231C0008231C0008231C000864
:10008000231C0008231C0008231C0008231C000854
:10009000231C0008231C0008231C00084F0C000828
:1000A000231C0008231C0008231C0008231C000834
:1000B000231C0008231C0008231C0008231C000824
:1000C000231C0008231C0008231C0008231C000814
:1000D000231C0008570E0008890E0008231C000886
:1000E0007D0C0008231C0008231C0008231C0008AA
:1000F000231C0008231C0008231C0008231C0008E4
:10010000231C0008231C0008231C0008231C0008D3
:10011000231C0008231C0008231C0008231C0008C3
:10012000231C0008231C0008231C0008231C0008B3
:10013000231C0008231C0008231C0008231C0008A3
:10014000231C0008231C0008231C0008231C000893
:10015000231C0008231C0008231C0008BB0E0008F9
:10016000231C0008231C0008231C0008231C000873
:10017000231C0008231C0008231C000800000000AA
:10018000231C0008231C0008231C0008231C000853
:10019000231C0008231C0008231C0008231C000843
:1001A000231C0008231C0008231C000800F002F890
:1001B00000F0B2F80AA090E8000C82448344AAF14F
:1001C0000107DA4501D100F0A7F8AFF2090EBAE84D
:1001D0000F0013F0010F18BFFB1A43F0010318477B
:1001E00048460100684601000A444FF0000C10F830
:1001F000013B13F0070408BF10F8014B1D1108BFA5
:1002000010F8015B641E05D010F8016B641E01F844
:10021000016BF9D113F0080F1EBF10F8014BAD1C94
:100220000C1B09D16D1E58BF01F801CBFAD505E0B2
:1002300014F8016B01F8016B6D1EF9D59142D6D30C
:10024000704700000023002400250026103A28BF34
:1002500078C1FBD8520728BF30C148BF0B60704738
:100260006E2910F0D981702910F02383662911F0CE
:10027000FA85652911F0F785672911F0F485612960
:1002800011F0F38503681B0A28BF41F0800169293A
:1002900010F08681642910F08381752910F0808127
:1002A0006F2910F0B082782910F0EF82E92910F060
:1002B0004B82E42910F04882F52910F04582EF299D
:1002C00010F0AD82F82910F0EE820368DB0928BF38
:1002D00041F08001632911F03380732911F03880D7
:1002E000E32911F04380F32911F048800020704782
:1002F0001FB511F0B3FD11F0D9F804000020002162
:1003000011F080FD401C60600020002111F090FD84
:10031000E0601FBD10B510BD11F0A3F81146FFF746
:10032000E7FF06F0BFF811F081F903B4FFF7F2FF21
:1003300003BC11F085F9000010B5002170200AF00F
:1003400091FC002170200AF0A0FC10BD10B50446FD
:10035000294809F096FF10BD10B5044627480068EB
:100360000A3026490860084600680A280DD1002195
:1003700086200AF077FC002186200AF086FC012006
:100380001F4908701FA008F054FA1C4800686E2826
:100390000FD3002186200AF065FC012186200AF097
:1003A00074FC002016490870144908601AA008F06F
:1003B00040FA10BD1CB50024062064210023AFF2D2
:1003C0006702CDE9001019A10B4809F0F5FE3220B3
:1003D00002218B020022CDE90010AFF28F0116A09E
:1003E00009F0B4FC04460CB901201CBD204609F0FC
:1003F00057FC0020F9E70000440200200000002024
:10040000040000205B6C65645F7374617465202078
:10041000204F4E205D0A00005B6C65645F73746161
:1004200074652020204F46465D0A000074696D65A2
:10043000725F7465737400006C6564000EB515A27C
:1004400007CA8DE80700FFF777FF01F0C7F906E05C
:1004500013A008F0EEF94FF47A7009F0CEFD01F028
:1004600038FA0028F4D115A008F0E3F901F0FCFAFD
:100470000FE04FF47A7009F0C0FD684601F07BFA96
:10048000202803D110A008F0D4F902E014A008F04D
:10049000D0F9EEE748656C6C6F20776F726C640082
:1004A000546869732069732061206572726F7220CD
:1004B000726571756573740A000000005468617498
:1004C000204F4B0A00000000446174612073656E88
:1004D00074207375636365737366756C6C790A0059
:1004E000446174612073656E74206661696C0A00F2
:1004F00000BFFEE710B592B000BF0020009060483A
:10050000006840F080505E4908600846006800F0CE
:100510008050009000BF00BF00BF002000905948ED
:10052000006840F44040574908600846006800F4FD
:100530004040009000BF00BF0120069000040790DB
:1005400002200C9041050D910F210E91D8210F91A1
:10055000022110910821119106A802F0CDFD18B1D9
:10056000312149A0FFF7C4FF02F0FCFC18B138218B
:1005700045A0FFF7BDFF0F20019002200290002050
:1005800003904FF4A05004904FF480500590052143
:1005900001A803F00AF818B146213BA0FFF7A8FF15
:1005A00003F01BF94FF47A71B0FBF1F4204601F02F
:1005B000BFFC042001F0BCFD00221146501E01F0DA
:1005C00041FC12B010BD10B507F02EFD01F08BFB01
:1005D00005F0F1FE07F03FFD10BD70B5044603F0D5
:1005E000FCF86421B0FBF1F5284601F0A1FC0022E3
:1005F0002146501E01F026FC002070BD01B5009878
:1006000009F0FBFC08BD7047704710B5032001F0EE
:1006100007FC002211466FF00B0001F013FC0022D2
:1006200011466FF00A0001F00DFC002211466FF038
:10063000090001F007FC00221146501F01F002FCE6
:1006400000221146101F01F0FDFB00220F21901E19
:1006500001F0F8FB00220F21501E01F0F3FB10BD4A
:1006600010B5FFF747FF01F002FB0B490B4808F0FC
:10067000C1FA05F0CFFE0AA008F050F910BD000045
:100680004038024000700040647269766572735CA5
:10069000626F6172642E63000000032090220020CC
:1006A0007561727431000000704700BFFEE700BF43
:1006B000FEE700BFFEE7704708B500BF00200090CE
:1006C000F848006840F00100F649086008460068F4
:1006D00000F00100009000BF00BF08BD08B500BFDA
:1006E00000200090EF48006840F00200ED490860EB
:1006F0000846006800F00200009000BF00BF08BD7F
:1007000008B500BF00200090E648006840F00400F3
:10071000E44908600846006800F00400009000BF4B
:1007200000BF08BD08B500BF00200090DD4800688C
:1007300040F00800DB4908600846006800F0080047
:10074000009000BF00BF08BD08B500BF00200090AA
:10075000D448006840F01000D2490860084600689C
:1007600000F01000009000BF00BF08BD08B500BF3A
:1007700000200090CB48006840F02000C949086084
:100780000846006800F02000009000BF00BF08BDD0
:1007900008B500BF00200090C248006840F040004B
:1007A000C04908600846006800F04000009000BFA3
:1007B00000BF08BD08B500BF00200090B948006820
:1007C00040F08000B74908600846006800F08000EB
:1007D000009000BF00BF08BD08B500BF002000901A
:1007E000B048006840F48070AE4908600846006870
:1007F00000F48070009000BF00BF08BD08B500BFC6
:1008000000200090A748006840F40070A5490860E7
:100810000846006800F40070009000BF00BF08BDEB
:1008200008B500BF002000909E48006840F480603A
:100830009C4908600846006800F48060009000BF92
:1008400000BF08BD0146D12907D2974A02EB01102B
:100850000268521C12B9002000E0002070472DE908
:10086000F04107460D461646E8B2FFF7EBFF044697
:100870000CB9BDE8F081F2B2A38999B2A06802F088
:100880007AFA00BFF5E72DE9F04107460D4600264C
:10089000E8B2FFF7D7FF044614B93046BDE8F0814F
:1008A000A28991B2A06802F05EFA06463046F5E7EA
:1008B000F0B585B007460E461446F0B2FFF7C2FF0A
:1008C00005460DB905B0F0BD68688047E86800903E
:1008D00001200190002002900320039024B9012000
:1008E00001900020029019E0012C03D1002001901A
:1008F000029013E0022C04D100200190012002900C
:100900000CE0032C04D1002001900220029005E0AD
:10091000042C03D111200190002002906946A868A0
:1009200002F086F800BFCDE70246002106E0012074
:100930008840904201D108467047491C2029F6DBC7
:100940004FF0FF30F8E72DE9F05F83460D4616467D
:100950001F46DDF828804FF0FF34E8B2FFF772FF42
:100960008146B9F1000F02D10620BDE8F09FD9F809
:100970000C00FFF7D9FF0446002C01DB102C01D33B
:100980000620F2E709F0BEFE824604EB4400474928
:1009900031F92000A84219D104EB440001EB80009A
:1009A0004068B84212D104EB440001EB800040885B
:1009B000B0420BD104EB440001EB8000806840455D
:1009C00004D1504609F0A2FE0020CEE704EB44001B
:1009D000364931F92000401C20B1504609F096FEFE
:1009E0000720C2E728B204EB4401304A22F8210074
:1009F00004EB4400114601EB8000476004EB440126
:100A000002EB81014E8004EB4400114601EB8000B3
:100A1000C0F80880504609F079FE0020A5E72DE9CE
:100A2000F04180460D464FF0FF34E8B2FFF70AFF71
:100A3000064616B90620BDE8F081F068FFF774FF9E
:100A40000446002C01DB102C01D30620F3E709F04B
:100A500059FE074604EB4400144931F92000401CBC
:100A600020B9384609F052FE0020E4E74FF0FF308D
:100A700004EB44010D4A22F82100002004EB44015C
:100A800002EB8101486004EB440102EB81014880E4
:100A900004EB440102EB81018860384609F036FE20
:100AA0000020C8E730380240701E0108080000200E
:100AB0002DE9F04F85B0894617464FF0FF3609F013
:100AC000FF00FFF7BFFE04461CB9062005B0BDE8D5
:100AD000F08F012F4BD1E068FFF726FF0646002E6E
:100AE00001DB102E01D30620F0E709F00BFE834650
:100AF00006EB4600704931F92000401C20B95846E9
:100B000009F004FE0620E1E76C4800EB860560680A
:100B10008047E0680090002002900320039006EBDD
:100B20004600654901EB8000408820B1012805D0CE
:100B3000022809D105E06248019005E06148019072
:100B400002E06148019000BF00BF6946A06801F063
:100B50006FFF95F902000022052101F073F995F964
:100B6000020001F0ADF9584609F0D0FD1CE0CFB904
:100B7000D4F80CA05046FFF7D7FE8046B8F1000F1E
:100B800002DBB8F1100F01D3002002E04B4800EB6C
:100B9000880005460DB9062098E795F9020001F096
:100BA0009CF901E0062091E700208FE710B50022B4
:100BB000464947A009F0ECFF0446204610BD70B539
:100BC00005462846FFF7B0FE044604EB44003A49C8
:100BD00001EB8000406858B104EB44020B4603EB84
:100BE0008202906804EB440203EB8202516888475A
:100BF00000BF70BD10B507F017FA012002F0DDF854
:100C000007F029FA10BD10B507F00EFA022002F025
:100C1000D4F807F020FA10BD10B507F005FA04204B
:100C200002F0CBF807F017FA10BD10B507F0FCF989
:100C3000082002F0C2F807F00EFA10BD10B507F058
:100C4000F3F9102002F0B9F807F005FA10BD10B55D
:100C500007F0EAF9202002F0B0F8402002F0ADF8E9
:100C6000802002F0AAF84FF4807002F0A6F84FF44A
:100C7000007002F0A2F807F0EEF910BD10B507F011
:100C8000D3F94FF4806002F098F84FF4006002F05E
:100C900094F84FF4805002F090F84FF4005002F0B6
:100CA0008CF84FF4804002F088F84FF4004002F0D6
:100CB00084F807F0D0F910BD08000020802B01084F
:100CC000000011100000211000003110C02B01089D
:100CD00070696E0070B506460D4626B92E22FC4995
:100CE000FCA007F0A9FE25B92F22F949FEA007F0C4
:100CF000A3FEF46B286860600021A1610C21616192
:100D00000021E161287900F00F00082802D00928AD
:100D100007D102E00021A16006E04FF48051A160FC
:100D200002E00021A16000BF00BF2879C0F30110DC
:100D300010B1012807D102E00021E16006E04FF484
:100D40000051E16002E00021E16000BF00BF2879AE
:100D5000C0F3811020B1012805D002280BD106E094
:100D6000002121610AE04FF4C061216106E04FF4E7
:100D70008061216102E00021216100BF00BF2046A7
:100D800004F0E3FA08B1012070BD0020FCE72DE972
:100D9000F04105460E46174625B96D22D649CDA02D
:100DA00007F04AFEEC6B102E13D0112E25D194F9CA
:100DB000400000F01F0201219140D04A430942F84F
:100DC000231000BF2068C06820F020002168C860A0
:100DD00013E094F9400000F01F0201219140420904
:100DE000920002F1E022C2F8001100BF2068C06842
:100DF00040F020002168C86000BF00BF0020BDE8AF
:100E0000F08170B504460E4624B98722BC49B1A0D2
:100E100007F012FEE56B00BF28680068C0F3C01041
:100E20000028F9D028684660012070BD70B50446DE
:100E300024B99422B349A7A007F0FEFDE56B4FF05B
:100E4000FF3628680068C0F3401010B12868406879
:100E5000C6B2304670BD10B5AB4C07F0E5F820685F
:100E60000068C0F3401060B12068C06800F0200046
:100E700038B10121A5480AF0DDFB6FF020002168A0
:100E8000086007F0E8F810BD10B5A14C07F0CCF8E9
:100E900020680068C0F3401060B12068C06800F0AE
:100EA000200038B101219B480AF0C4FB6FF02000FC
:100EB0002168086007F0CFF810BD10B5964C07F018
:100EC000B3F820680068C0F3401060B12068C068C3
:100ED00000F0200038B1012190480AF0ABFB6FF020
:100EE00020002168086007F0B6F810BD10B586B084
:100EF00004468B492068884231D100BF0020009011
:100F00008848006840F0100086490860084600687C
:100F100000F01000009000BF00BF00BF0020009054
:100F200080481438006840F001007E491439086098
:100F30000846006800F00100009000BF00BF4FF4B9
:100F4000C0600190022002900120039003200490D1
:100F50000720059001A9744801F06AFD6AE0734911
:100F60002068884232D100BF002000906D48001FE9
:100F7000006840F400306B49091F086008460068AB
:100F800000F40030009000BF00BF00BF00200090C0
:100F900064481438006840F0010062491439086060
:100FA0000846006800F00100009000BF00BF0C2060
:100FB000019002200290012003900320049007205A
:100FC000059001A9584801F033FD33E058492068E5
:100FD00088422FD100BF002000905248006840F0A6
:100FE0002000504908600846006800F0200000908A
:100FF00000BF00BF00BF002000904A4814380068BE
:1010000040F004004749143908600846006800F0C1
:101010000400009000BF00BFC02001900220029099
:1010200001200390032004900820059001A9414865
:1010300001F0FEFC06B010BD10B50446384920682A
:1010400088420BD13748006820F01000354908600D
:101050004FF4C061344801F0DEFD1EE033492068E2
:1010600088420CD12F48001F006820F400302D4921
:10107000091F08600C212C4801F0CDFD0DE02C4922
:101080002068884209D12748006820F020002549BF
:101090000860C021274801F0BEFD10BD1CB52649DF
:1010A00003C9CDE90001184C1D482060252084F8B3
:1010B00040002248154908640846DDE90012C0E9ED
:1010C0001112234640F203121DA10AF08AFA3BE0F6
:1010D000EC2B010873657269616C20213D2052542C
:1010E0005F4E554C4C00000063666720213D205246
:1010F000545F4E554C4C0000FA2B010880E100E093
:10110000062C01080F2C010870020020B4020020F8
:10111000080300204C030020A0030020E40300206B
:1011200000100140443802400000024000440040EA
:101130000014014000080240182C0108D82B0108B7
:101140007561727431000000144C1548206026202F
:1011500084F840001348144908640846DDE9001289
:10116000C0E91112234640F2031210A10AF039FA25
:10117000104C11482060472084F8400009480F496E
:1011800008640846DDE90012C0E91112234640F266
:1011900003120BA10AF025FA00201CBD0803002051
:1011A00000440040D82B01084C0300207561727484
:1011B00032000000A003002000140140E4030020DE
:1011C000756172743600000030B597B005460C4664
:1011D0000195207800F0080010B10020029002E094
:1011E0004FF482700290207800F0400018B14FF464
:1011F0000041039101E0002103916078082802D1A9
:101200000021049108E06078102802D1C101049106
:1012100002E0082017B030BD207800F0010010B1C6
:101220000121069101E000210691207800F00200E2
:1012300010B10221059101E000210591207800F014
:10124000200018B14FF40071079102E04FF40071D3
:10125000079102F0D0FA6168B1EB500F02D3002180
:10126000089137E002F0C7FA6168B1EB900F02D342
:10127000082108912EE002F0BEFA6168B1EBD00FB0
:1012800002D31021089125E002F0B5FA6168B1EBB4
:10129000101F02D3182108911CE002F0ACFA61681B
:1012A000B1EB501F02D32021089113E002F0A3FA02
:1012B0006168B1EB901F02D3282108910AE002F087
:1012C0009AFA6168B1EBD01F02D33021089101E096
:1012D00038210891207800F0040010B10021099114
:1012E00001E08021099100210A910B9107210C91C5
:1012F00000208DF8550001A802F04BFB08B1082032
:1013000088E70198006840F04000019908600020DB
:1013100080E71CB5034600200190FF20009011B922
:101320000AB901201CBD01B901A902B96A4600BF72
:1013300018688068C0F340000028F9D000BF5868E2
:101340004078082803D110781C68E06002E010881B
:101350001C68E06000BF00BF1868806800F00100F2
:101360000028F9D000BF58684078082803D11868D1
:10137000C068087002E01868C068088000BF0020DC
:10138000D0E72DE9F05F05460C4625B9CB22DE49B2
:10139000DEA007F051FB286C20B9CC22DA49E0A08E
:1013A00007F04AFB286CC06B20B9CD22D649E2A0D9
:1013B00007F042FB286CC66BD5F83CB0207C00F0EF
:1013C000010020B10021DBF8000009F05EFC276875
:1013D000D4F80480D4F808901FE03A4641463046DD
:1013E000FFF797FF8246B8F1000F07D0706840788A
:1013F000082801D1012000E0022080443FB170683C
:101400004078082801D1012000E002200744BAF109
:10141000000F00D004E0A9F10109B9F1000FDCD1FF
:1014200000BF00BF30688068C0F3C0100028F9D149
:10143000207CC0F3400020B10121DBF8000009F05E
:1014400024FCA068A0EB0900BDE8F09F70B504463D
:101450000D46206CC66B756029463068FFF7B4FEF8
:1014600070BD2DE9F04104460F46BE48844202D1CA
:10147000BD4DBE4E0FE0BE48844202D1BD4DBE4EB2
:1014800009E0BE48844202D1BD4DBE4E03E04FF09C
:10149000FF30BDE8F0813460EE63BB4A3946284630
:1014A0000AF088FAF5E72DE9F04105460E461746A1
:1014B0004C2007F005FC8046B8F1000F05D14FF431
:1014C0009072B249B2A007F0B7FA042007F0F8FB17
:1014D00004462CB94FF49172AC49B3A007F0ACFAB2
:1014E00025600021284609F0BDFB0121284609F0AE
:1014F000CCFB23463246394640460AF074FABDE832
:10150000F08110B50024ADA19648FFF7AAFF04466C
:10151000ACA19748FFF7A5FF0446204610BD10B5C3
:1015200086B004468F492068884230D100BF002031
:101530000090A648006840F48050A449086008461E
:10154000006800F48050009000BF00BF00BF002082
:1015500000909E481438006840F001009B491439FF
:1015600008600846006800F00100009000BF00BF5E
:10157000E0200190022002900020039003200490BC
:101580000520059001A9924801F052FA81E07849BE
:101590002068884246D100BF002000908B48001F81
:1015A000006840F480408949091F086008460068C7
:1015B00000F48040009000BF00BF00BF00200090FA
:1015C00082481438006840F00200804914390860ED
:1015D0000846006800F00200009000BF00BF00BF96
:1015E000002000900846006840F0040008600846AB
:1015F000006800F00400009000BF00BF40F20C4003
:101600000190022002900020039003200490052006
:10161000059001A96F4801F00BFA01A96E4801F08D
:1016200007FA36E055492068884232D100BF0020D1
:1016300000906648001F006840F400406349091F9D
:1016400008600846006800F40040009000BF00BF3A
:1016500000BF002000905D481438006840F004008E
:101660005A49143908600846006800F004000090E8
:1016700000BF00BF4FF4E050019002200290002014
:101680000390032004900620059001A9524801F020
:10169000CFF906B010BD10B5044632492068884223
:1016A0000AD14A48006820F4805048490860E02187
:1016B000474801F0B0FA25E02D492068884210D152
:1016C0004248001F006820F480404049091F08601C
:1016D0000915404801F09FFA0C213F4801F09BFAA0
:1016E00010E02649206888420CD13848001F006865
:1016F00020F400403549091F08604FF4E051364896
:1017000001F089FA10BD0000282C01086465766993
:10171000636520213D2052545F4E554C4C00000023
:101720006465766963652D3E62757320213D2052A4
:10173000545F4E554C4C00006465766963652D3EE0
:101740006275732D3E706172656E742E757365726D
:101750005F6461746120213D2052545F4E554C4CB2
:10176000000000000030014038040020C8000020C4
:1017700000380040A4040020D0000020003C0040BD
:1017800010050020D8000020202C0108302C010872
:101790007370695F64657669636520213D205254EA
:1017A0005F4E554C4C00000063735F70696E2021E2
:1017B0003D2052545F4E554C4C000000737069310F
:1017C00000000000737069320000000044380240DD
:1017D00000000240000402400008024010B5BB486F
:1017E000BB4908604FF4827048600021B8488160AE
:1017F000C160016141614FF4007181611021C161DB
:1018000000210162416281620A21C16202F0C1F8D5
:10181000AF480068006840F04000AD4909680860C2
:1018200010BD3EB505460C460194FF20012302AAD7
:1018300001A90090284602F04AFA08B1FF20029060
:101840009DF808003EBD2DE9F04105460E461746BD
:1018500000224FF480619F4801F08DFA29469C4890
:10186000FFF7DFFF8046002406E0FF219848FFF7DE
:10187000D8FF3055601CC4B2BC42F6DB0122910295
:10188000944801F078FA4046BDE8F0812DE9F04136
:1018900005460C46164600224FF480618D4801F043
:1018A0006AFA29468A48FFF7BCFF8046002706E00F
:1018B00014F8011B8648FFF7B4FF781CC7B2B74283
:1018C000F6DB01229102834801F055FA4046BDE85B
:1018D000F0811CB580A103C9CDE90001052269464C
:1018E0003020FFF7D3FF052269461020FFF7ABFF3A
:1018F000002406E01DF80400A52800D003E0601CC9
:10190000C4B2052CF6DB00BF052C01D001201CBDA4
:101910000020FCE770B504460D4600224FF48061BC
:101920006C4801F028FA21466948FFF77AFF06461D
:1019300029466748FFF775FF01229102654801F0CB
:101940001AFA304670BD70B5044600224FF480612B
:10195000604801F010FA21465D48FFF762FFFF2161
:101960005B48FFF75EFF054601229102594801F0EE
:1019700002FA284670BD70B5054600224FF400619A
:10198000544801F0F8F920222946A020FFF77EFFF5
:101990000122D1024F4801F0EEF900BF4FF400518F
:1019A0004C4801F0E0F90028F8D10720FFF7CBFF01
:1019B000044621462720FFF7ADFF04F0100028B1B0
:1019C000FF21E120FFF7A6FF102070BD04F02000EA
:1019D00008B12020F9E7FF20F7E770B5044607209B
:1019E000FFF7B1FF054629462720FFF793FF05F0D3
:1019F000400050B1202221466120FFF724FFFF2143
:101A0000E220FFF787FF002070BD0120FCE710B542
:101A100000224FF400612F4801F0ADF90F21202082
:101A2000FFF778FF01212120FFF774FF0121222019
:101A3000FFF770FF28212520FFF76CFF0F212620DC
:101A4000FFF768FF20213120FFF764FF05222449BA
:101A50002A20FFF71BFF0122D1021E4801F08BF95B
:101A60000120FEF7CBFD10BD10B500224FF4006140
:101A7000184801F080F905221A493020FFF706FFC7
:101A8000052217492A20FFF701FF01212120FFF736
:101A900041FF01212220FFF73DFFFF212420FFF716
:101AA00039FF28212520FFF735FF0F212620FFF7DA
:101AB00031FF0E212020FFF72DFF0122D102054822
:101AC00001F059F90120FEF799FD10BD00300140E9
:101AD0007C05002000080240A5A5A5A5A5000000E2
:101AE000512C01084C2C01083F48006840F470005C
:101AF0003D4908603D48006840F001003B490860EE
:101B000000203A49083108603848006838490840E0
:101B1000364908603748091D0860081F006820F42E
:101B20008020091F0860002030490C3108604FF008
:101B300000602D4980390860704770B50020002290
:101B4000022300240221294D08352D6805F00C00E0
:101B500020B1042806D0082834D107E0264D274EAE
:101B6000356033E0264D254E35602FE01F4D2D1D8D
:101B70002D68C5F380541D4D2D1D2D6805F03F01C6
:101B800054B11F4DB5FBF1F5184E361D3668C6F33E
:101B9000881605FB06F209E0174DB5FBF1F5134E6B
:101BA000361D3668C6F3881605FB06F20F4D2D1D4F
:101BB0002D68C5F301456D1C6B00B2FBF3F50F4EAC
:101BC000356003E00C4D0D4E356000BF00BF074D82
:101BD00008352D68C5F303150A4E705D074D2D6855
:101BE000C540064E356070BD88ED00E0003802400B
:101BF000FFFFF6FE103000240024F400E000002077
:101C000040787D01562C0108094880470948004763
:101C1000FEE7FEE7FEE7FEE7FEE7FEE7FEE7FEE79C
:101C2000FEE7FEE704480549054A064B70470000F9
:101C3000E91A0008AD010008901C00209022002045
:101C4000901E0020901E0020704770B50446634827
:101C500000684FF47A71B0FBF1F5284600F068F99E
:101C600000222146501E00F0EDF8002070BD10B596
:101C70005B48006840F400705949086008460068F5
:101C800040F4806008600846006840F48070086096
:101C9000032000F0C5F80F20FEF79FFCFEF7B5FC0F
:101CA000002010BD704710B54FF0FF304D4908605F
:101CB00000200860401E091D086000200860401ECA
:101CC00048491039086000200860401E091D08605E
:101CD00000200860401E091D086000200860FFF712
:101CE000E1FF002010BD40480068401C3E490860EC
:101CF00070473D480068704731B5FFF7FAFF054669
:101D0000009C601C00B1641C00BFFFF7F2FF401B89
:101D1000A042FAD338BD4FF0E020006920F0020065
:101D20004FF0E021086170474FF0E020006940F07B
:101D300002004FF0E021086170472C4870472C48A2
:101D40000068000C70472A480068C0F30B00704719
:101D50002748406840F00100254948607047244802
:101D6000406820F0010022494860704720484068E0
:101D700040F002001E49486070471D48406820F04E
:101D800002001B49486070471948406840F0040051
:101D90001749486070471648406820F0040014490D
:101DA00048607047012013490860704700201149BE
:101DB000086070471049096801600F49091D0968EA
:101DC00041600D49083109688160704701200B4965
:101DD000086270470020094908627047E00000204F
:101DE000003C024020380240E400002000020701CD
:101DF000002004E000042742107AFF1F0000274261
:101E000010B5002807DA0A07140ED94A00F00F03AC
:101E10001B1FD45403E00A07130ED64A135410BDF7
:101E200000BF00F00702D24B0C3B19684FF6FF03CE
:101E30001940D14B0B4343EA0221CD4B0C3B1960B7
:101E400000BF70472DE9F05F80460D46164600271B
:101E500000F087F9074639462A46334601F0070065
:101E6000C0F1070ABAF1040F02D94FF0040A01E0E9
:101E7000C0F1070AD14600F1040ABAF1070F02D2F5
:101E80004FF0000A01E0A0F1030AD4464FF0010A26
:101E90000AFA09FAAAF1010A0AEA020A0AFA0CFA8B
:101EA0004FF0010B0BFA0CFBABF1010B0BEA030B30
:101EB0004AEA0B0421464046FFF7A2FFBDE8F09F27
:101EC00000BF00F01F02012191404209920002F17F
:101ED000E022C2F8001100BF704700BF00F01F02EF
:101EE00001219140A54A430942F8231000BF7047E1
:101EF00000BF00BF00BF00BF00BFBFF34F8F00BFD8
:101F000000BF00BF9A480C38006800F4E0609A49AE
:101F10000843001D96490C39086000BF00BF00BF90
:101F2000BFF34F8F00BF00BF00BF00BF00BFFDE782
:101F300070B504462546681EB0F1807F01D30120AC
:101F40000FE0681E4FF0E02148610F214FF0FF3095
:101F5000FFF756FF00204FF0E0218861072008615D
:101F6000002070BD00BF00BF00BFBFF35F8F00BF88
:101F700000BF00BF7E480C30006820F480307C49F0
:101F80000C31086000207A497C310860704740F0CD
:101F90000101774A7C32116075490C31096841F4BE
:101FA0008031734A0C32116000BF00BF00BFBFF325
:101FB0004F8F00BF00BF00BF00BF00BF00BFBFF317
:101FC0006F8F00BF00BF00BF70474178684A803202
:101FD00011600178F9B1121D41681160017B090798
:101FE000C27A41EA0261827A41EAC241427B41EA15
:101FF0008241827B41EA4241C27B41EA0241427A0C
:1020000041EA0221027A41EA420102781143584A28
:102010008832116005E00021554A84321160121D9A
:102020001160704710B500F09CF810BD2DE9F04329
:1020300004462046002808DA4D4F00F00F0CACF1A2
:10204000040C17F80C703F0902E04A4F3F5C3F094F
:102050003D460E4606F00700C0F10708B8F1040F30
:1020600002D94FF0040801E0C0F10708C44600F1AE
:102070000408B8F1070F02D24FF0000801E0A0F108
:102080000308474625FA07F84FF0010909FA0CF949
:10209000A9F1010908EA0908C2F800804FF0010817
:1020A00008FA07F8A8F1010808EA0508C3F8008053
:1020B00000BFBDE8F08300BF00F01F020121914086
:1020C0002E4A8032430942F8231000BF704710B5F2
:1020D00001460846294A8032430952F8232000F07D
:1020E0001F040123A3401A400AB1012200E000228C
:1020F000104610BD00BF00F01F0201219140204A90
:10210000430942F8231000BF704710B50146084646
:102110001B4A8032430952F8232000F01F04012398
:10212000A3401A400AB1012200E00022104610BD6F
:10213000042808D14FF0E021096941F004014FF073
:10214000E022116107E04FF0E021096921F004016C
:102150004FF0E02211617047704710B5FFF7FCFFA8
:1021600010BD03480C380068C0F30220704700001F
:1021700018ED00E000E400E00000FA0580E100E076
:1021800080E200E00146087810381823B0FBF3F233
:10219000FB48805CC865032A05D908686FF309000D
:1021A000001D886503E008686FF309008865886D85
:1021B0007047014600208A6A8B69CBB932B1012A87
:1021C0000DD0022A03D0032A10D10EE000BFCB6A43
:1021D00003F08073B3F1807F00D1012007E0CB6A68
:1021E000B3F1C07F00D1012001E000E000BF34E086
:1021F0008B69B3F5005F1AD132B1012A07D0022AE8
:1022000003D0032A11D10AE000BF01200EE0CB6AFF
:1022100003F08073B3F1807F00D1012006E0CB6A28
:10222000B3F1C07F00D1012000E000BF15E032B162
:10223000012A05D0022A04D0032A0CD103E000BFF2
:1022400000BF012008E0CB6A03F08073B3F1807F08
:1022500000D1012000E000BF00BF70472DE9F04130
:1022600004460025FFF745FD074614B90120BDE8E7
:10227000F081606A00B100BF00BF002084F8340024
:1022800000BF022084F835002068006820F00100BB
:10229000216808600AE0FFF72CFDC01B052805D95E
:1022A00020206065032084F83500E0E7206800689E
:1022B00000F001000028EED120680568B148054013
:1022C000D4E901010843E1680843216908436169D1
:1022D0000843A1690843E1690843216A08430543AB
:1022E000606A042803D1D4E90B0108430543206840
:1022F00005602068456925F00705606A0543606A46
:1023000004280DD1A06A0543E06A48B12046FFF7D2
:1023100050FF28B140206065012084F83500A6E711
:10232000206845612046FFF72DFF064694F85C10B3
:102330003F208840B06000206065012084F83500AF
:10234000002094E770B504460CB9012070BD94F8E4
:102350003500022800D1F9E72068006820F001006C
:1023600021680860002021680860216848602168B1
:1023700088602168C860216808612120216848615F
:102380002046FFF7FFFE054694F85C103F2088408A
:10239000A8600020606584F8350000BF84F8340030
:1023A00000BF00BFD2E730B50468246824F480245D
:1023B00005682C60046863608468402C04D104685C
:1023C000A2600468E16003E00468A1600468E26060
:1023D00030BD2DE9F04104460D4616461F464FF02C
:1023E000000800BF94F83400012802D10220BDE8A3
:1023F000F081012084F8340000BF94F835000128F2
:1024000011D1022084F83500002060653B46324639
:1024100029462046FFF7C7FF2068006840F001000A
:102420002168086006E000BF002084F8340000BF87
:102430004FF002084046DAE72DE9F04704460D4622
:1024400016461F464FF00008D4F8589000BF94F885
:102450003400012802D10220BDE8F087012084F871
:10246000340000BF94F8350001282BD1022084F8F5
:102470003500002060653B46324629462046FFF77E
:1024800092FF94F85C103F208840C9F8080020684B
:10249000006840F01600216808602068406940F03C
:1024A000800021684861206C28B12068006840F0F5
:1024B0000800216808602068006840F00100216879
:1024C000086006E000BF002084F8340000BF4FF031
:1024D00002084046C0E770B50446A56DFFF709FC49
:1024E000064694F83500022808D08020606500BFB9
:1024F000002084F8340000BF012070BD206800680F
:1025000020F01600216808602068406920F08000F3
:1025100021684861206C08B9A06C28B12068006867
:1025200020F00800216808602068006820F00100A1
:10253000216808600FE0FFF7DCFB801B05280AD943
:102540002020606500BF002084F8340000BF032015
:1025500084F83500D1E72068006800F00100002809
:10256000E9D194F85C103F208840A86000BF0020AB
:1025700084F8340000BF012084F835000020BCE757
:102580006E2C01083F8010F0014691F835000228BA
:1025900003D08020486501207047052081F8350070
:1025A0000868006820F001000A6810600020F3E766
:1025B0002DE9F05F0446884617464FF0000AFFF702
:1025C00098FB834694F83500022809D08020606586
:1025D00000BF002084F8340000BF0120BDE8F09F58
:1025E0002068006800F4807020B14FF4807060654E
:1025F0000120F3E7B8F1000F05D194F85C1020201A
:1026000000FA01F904E094F85C10102000FA01F9D6
:10261000A56D2E6842E0781C90B12FB1FFF769FBE1
:10262000A0EB0B00B8420BD92020606500BF002052
:1026300084F8340000BF012084F835000320CDE782
:102640002E6894F85C1008208840304040B1606DDE
:1026500040F00100606594F85C1008208840A86094
:1026600094F85C1001208840304040B1606D40F02B
:102670000200606594F85C1001208840A86094F81E
:102680005C1004208840304040B1606D40F0040090
:10269000606594F85C1004208840A86006EA090090
:1026A00020B9606D00F001000028B4D0606DA0B1C9
:1026B000606D00F0010080B12046FFF70CFF94F838
:1026C0005C1030208840A86000BF002084F83400EF
:1026D00000BF012084F8350080E7B8F1000F0DD16C
:1026E00094F85C1030208840A86000BF002084F877
:1026F000340000BF012084F8350004E094F85C1039
:1027000010208840A860504668E7F8B504460020CD
:102710000090C64800684FF41651B0FBF1F7A56D64
:102720002E6894F85C1008208840304098B12068EA
:10273000006800F0040070B12068006820F0040018
:102740002168086094F85C1008208840A860606DDB
:1027500040F00100606594F85C1001208840304032
:1027600068B12068406900F0800040B194F85C10C6
:1027700001208840A860606D40F00200606594F818
:102780005C1004208840304068B12068006800F088
:10279000020040B194F85C1004208840A860606D8D
:1027A00040F00400606594F85C10102088403040D0
:1027B00078B32068006800F0080050B394F85C100B
:1027C00010208840A8602068006800F4802080B154
:1027D0002068006800F4002028B9206CC8B12046A9
:1027E000216C884715E0A06C98B12046A16C884701
:1027F0000FE02068006800F4807028B92068006845
:1028000020F0080021680860206C10B12046216C7F
:10281000884794F85C10202088403040002865D01C
:102820002068006800F0100000285FD094F85C1069
:1028300020208840A86094F83500052828D1206819
:10284000006820F01600216808602068406920F0C8
:10285000800021684861206C08B9A06C28B120680C
:10286000006820F008002168086094F85C103F20A0
:102870008840A86000BF002084F8340000BF012019
:1028800084F83500206D10B12046216D8847F8BDD1
:102890002068006800F4802080B12068006800F49F
:1028A000002028B9606C10B12046616C88471DE09B
:1028B000E06BD8B12046E16B884717E020680068DC
:1028C00000F4807068B92068006820F0100021686A
:1028D000086000BF002084F8340000BF012084F8A5
:1028E0003500E06B10B12046E16B8847606D38B36E
:1028F000606D00F00100F0B1052084F8350020681B
:10290000006820F001002168086000BF0098401CAA
:102910000090B84200D905E02068006800F001008E
:102920000028F3D100BF00BF002084F8340000BFAE
:10293000012084F83500E06C10B12046E16C884736
:1029400000BFA4E710B50346002400BF93F834008D
:10295000012801D1022010BD012083F8340000BFFE
:1029600093F83500012814D1062910D2DFE801F0D0
:10297000030507090B0DDA630AE01A6408E05A64DC
:1029800006E09A6404E0DA6402E01A6500E000BF41
:1029900000E0012400BF002083F8340000BF20467F
:1029A000D9E70246002300BF92F83400012801D184
:1029B00002207047012082F8340000BF92F83500F1
:1029C000012824D107291FD2DFE801F004070A0DEE
:1029D000101316000020D06318E00020106415E0EA
:1029E0000020506412E0002090640FE00020D064CA
:1029F0000CE00020106509E00020D06310645064F2
:102A00009064D064106501E0012300BF00E0012361
:102A100000BF002082F8340000BF1846C9E7014615
:102A200091F8350070470146486D7047E00000207E
:102A3000F8B502460B460025002400200021E6E000
:102A4000012606FA01F51E6806EA0504AC4273D1B8
:102A50005E68022E02D05E68122E13D1CF0802F1FA
:102A6000200656F827004E07F70E0F26BE40B0434B
:102A70004F07FF0E1E69BE403043CF0802F120060B
:102A800046F8270010684F000326BE40B0431E7969
:102A900006F003064F00BE40304310605E68012E12
:102AA00008D05E68022E05D05E68112E02D05E68E6
:102AB000122E13D190684F000326BE40B0434F0042
:102AC000DE68BE4030439060506801268E40B043BF
:102AD0001E79C6F300168E4030435060D0684F0018
:102AE0000326BE40B0434F009E68BE403043D060D6
:102AF0005E6806F08056B6F1805FA8D100BF002660
:102B00000096B54E366846F48046B34F3E603E466A
:102B1000366806F48046009600BF00BFAF4E8F08AF
:102B200056F827008E07370F0F26BE40B043AC4E35
:102B3000B24202D100262EE068E0AA4EB24201D194
:102B4000012628E0A84EB24201D1022623E0A74E7A
:102B5000B24201D103261EE0A54EB24201D10426A5
:102B600019E0A44EB24201D1052614E0A24EB242B1
:102B700001D106260FE0A14EB24201D107260AE09C
:102B80009F4EB24201D1082605E09E4EB24201D1CD
:102B9000092600E00A268F073F0FBE4030438F4EC4
:102BA0008F0846F82700984E3068A0435E6806F408
:102BB0008036B6F5803F00D12043934E3060361DFD
:102BC0003068A0435E6806F40036B6F5003F00D1D9
:102BD00020438D4E361D3060361D3068A0435E6840
:102BE00006F48016B6F5801F00D12043864E0836C5
:102BF0003060361D3068A0435E6806F40016B6F5F6
:102C0000001F00D12043804E0C363060491C102933
:102C1000FFF416AFF8BDF0B50C46002500220023E6
:102C200000219CE0012606FA01F504EA0502AA4209
:102C30007DD106684FEA410C032707FA0CF7BE4323
:102C40000660CF0800F1200656F827604F074FEACC
:102C5000D76C0F2707FA0CF7BE434FEAD10C00F1EF
:102C6000200747F82C6086684FEA410C032707FAD3
:102C70000CF7BE438660476801268E40B743476025
:102C8000C6684FEA410C032707FA0CF7BE43C6603B
:102C9000524E8F0856F827308E07370F0F26BE404A
:102CA00033404F4EB04201D100262DE04D4EB04290
:102CB00001D1012628E04C4EB04201D1022623E08A
:102CC0004A4EB04201D103261EE0494EB04201D126
:102CD000042619E0474EB04201D1052614E0464EC5
:102CE000B04201D106260FE0444EB04201D1072682
:102CF0000AE0434EB04201D1082605E0414EB04201
:102D000001D1092600E00A268F073F0FBE409E42F0
:102D100024D18E07370F0F2606FA07F32F4E8F08A0
:102D200056F827609E432D4F4FEA910C00E015E0C6
:102D300047F82C60344E36689643334F3E603E1D54
:102D4000366896433F1D3E603E1D366896433F1DE4
:102D50003E603E1D366896433F1D3E60491C10296B
:102D6000FFF460AFF0BD024613690B400BB10120C8
:102D700000E0002070470AB1816101E00B0483612B
:102D8000704742694A404261704708B502464FF4B5
:102D9000803000900098084300900098D061D16185
:102DA0000098D061D0690090D06900F4803008B1FB
:102DB000002008BD0120FCE7704710B5044612480A
:102DC00014300068204028B10F48143004602046B9
:102DD000FDF7F5FE10BD0000443802400838014000
:102DE000000002400004024000080240000C0240C3
:102DF000001002400014024000180240001C024073
:102E00000020024000240240003C014010B5002494
:102E10000120B3490860FEF76CFF044607E0FEF7A7
:102E200068FF001BB0F57A7F01D9032010BDAD48C3
:102E30004068C0F3C0000028F1D00020F6E710B5CC
:102E400000240020A6490860FEF753FF044607E06F
:102E5000FEF74FFF001BB0F57A7F01D9032010BDAC
:102E6000A0484068C0F3C0000028F1D100BFF6E7D9
:102E700001209B49A4394862704700209849A43931
:102E8000486270479748006800F44040704738B582
:102E90000546002400BF002000909348006840F0E1
:102EA0008050914908600846006800F0805000900A
:102EB00000BF00BF8C483838006800F00C000828BC
:102EC0004CD0002089490866FEF713FF044606E04F
:102ED000FEF70FFF001B022801D9032038BD8248EE
:102EE00040380068C0F340600028F1D100BF009076
:102EF0007C48006820F4404028437A49086008462E
:102F0000006800F44040009000BF00BF01207749F6
:102F10000866FEF7EEFE044606E0FEF7EAFE001B3A
:102F2000022801D90320D9E76F4840380068C0F370
:102F300040600028F1D0FEF7DCFE044607E0FEF713
:102F4000D8FE001BB0F57A7F01D90320C6E765489B
:102F50004068C0F380300028F1D001E00120BDE7D7
:102F60000020BBE738B5002400BF002000905E4879
:102F7000006840F080505C4908600846006800F036
:102F80008050009000BF00BF01205549A43908645B
:102F9000FEF7AFFE044607E0FEF7ABFE001BB0F500
:102FA0007A7F01D9032038BD4E48406800F4803054
:102FB000B0F5803FF0D101204949A4394864FEF7BB
:102FC00098FE044607E0FEF794FE001BB0F57A7FFA
:102FD00001D90320E7E74348406800F40030B0F52A
:102FE000003FF0D10020DEE738B5002400BF00200C
:102FF00000903D48006840F080503B49086008461A
:10300000006800F08050009000BF00BF00203449ED
:10301000A4394864FEF76DFE044607E0FEF769FE3A
:10302000001BB0F57A7F01D9032038BD2D484068D8
:1030300000F40030B0F5003FF0D000202849A4395A
:103040000864FEF756FE044607E0FEF752FE001B3A
:10305000B0F57A7F01D90320E7E72248406800F401
:103060008030B0F5803FF0D00020DEE718B5024692
:103070000B46002100BF002000901B48006840F074
:103080008050194C20602046006800F0805000906D
:1030900000BF00BF1348406840F44020114C6060FE
:1030A0002046006840F4402020602046016840F639
:1030B000034081431143204601600D48006840F001
:1030C00004000B4C2060012B01D130BF00E020BF79
:1030D0000748006820F00400054C2060002018BD5F
:1030E000A4000E42007000404038024000004742F9
:1030F00010ED00E00020704738B504460CB90120FF
:1031000038BD207800F00100002874D0F84800682D
:1031100000F00C0004280DD0F548006800F00C0009
:10312000082813D1F248001F006800F48000B0F5B1
:10313000800F0BD1EE4808380068C0F340400028EB
:1031400059D06068002856D10120D9E700BF6068D7
:10315000B0F5803F08D1E6480838006840F4803078
:10316000E349083908601EE06068B0F5A02F0DD172
:10317000DF480838006840F48020DD4908390860DD
:103180000846006840F4803008600CE0D8480838F1
:10319000006820F48030D649083908600846006885
:1031A00020F48020086000BF606890B1FEF7A1FDA8
:1031B000054606E0FEF79DFD401B642801D903206B
:1031C0009EE7CB4808380068C0F340400028F1D0A3
:1031D00011E0FEF78EFD054606E0FEF78AFD401B76
:1031E000642801D903208BE7C14808380068C0F380
:1031F00040400028F1D1207800F0020002285FD181
:10320000BB48006800F00C0058B1B948006800F0F5
:103210000C0008281CD1B648001F006800F480008C
:10322000B0B9B34808380068C0F3400020B1E06886
:10323000012801D0012063E7AD480838006820F07C
:10324000F800216940EAC100A9490839086037E05F
:10325000E06800B30120A7490860FEF74AFD054673
:1032600006E0FEF746FD401B022801D9032047E790
:103270009F4808380068C0F340000028F1D09C48FF
:103280000838006820F0F800216940EAC100984938
:103290000839086014E0002096490860FEF729FD0F
:1032A000054606E0FEF725FD401B022801D9032054
:1032B00026E78F4808380068C0F340000028F1D1A5
:1032C000207800F0080008282CD16069A8B10120FE
:1032D00089490860FEF70DFD054606E0FEF709FD89
:1032E000401B022801D903200AE781486C3000689E
:1032F000C0F340000028F1D014E000207E490860AF
:10330000FEF7F7FC054606E0FEF7F3FC401B02283B
:1033100001D90320F4E676486C300068C0F3400021
:103320000028F1D1207800F0040004287FD100BFEC
:10333000002000906E483830006840F080506C49A2
:10334000383108600846006800F08050009000BFE7
:1033500000BF6A48006840F4807068490860FEF762
:10336000C8FC054606E0FEF7C4FC401B022801D954
:103370000320C5E66148006800F480700028F2D0A0
:1033800000BFA068012808D159486830006840F0A3
:1033900001005749683108601DE0A06805280DD17B
:1033A00053486830006840F00400514968310860B3
:1033B0000846006840F0010008600CE04C486830A6
:1033C000006820F001004A4968310860084600683A
:1033D00020F00400086000BFA068A0B1FEF789FCDF
:1033E000054608E0FEF785FC401B41F28831884223
:1033F00001D9032084E63E4868300068C0F34000ED
:103400000028EFD013E0FEF774FC054608E0FEF755
:1034100070FC401B41F28831884201D903206FE6DD
:10342000334868300068C0F340000028EFD1A0693D
:10343000B8B32F48006800F00C00082860D0A069DD
:1034400002283ED100202B490866FEF752FC0546B3
:1034500006E0FEF74EFC401B022801D903204FE690
:10346000234808380068C0F340600028F1D1D4E94F
:1034700007010843616A40EA81110122A06AC2EB98
:10348000500041EA00412C20005D41EA00601849EB
:10349000091F0860012017490866FEF72AFC054647
:1034A00007E02FE0FEF725FC401B022801D903208E
:1034B00026E60F4808380068C0F340600028F1D0C5
:1034C00020E000200B490866FEF713FC054606E0E5
:1034D000FEF70FFC401B022801D9032010E6044828
:1034E00008380068C0F340600028F1D10AE007E026
:1034F0000838024000004742800E474200700040FA
:103500000120FDE50020FBE52DE9F0470024002522
:103510000026A146FB48006800F00C0020B10428FA
:1035200005D008283AD105E0DFF8DC9339E0DFF870
:10353000DC9336E0F348001F006800F03F04F148D8
:10354000001F006800F4800078B1F048ED49091FC1
:103550000968C1F38811A0FB0170014622460023CF
:1035600038460CF042FD05460EE0E748E549091FE4
:103570000968C1F38811A0FB0170014622460023AF
:1035800038460CF032FD0546DE48001F0068C0F3E7
:103590000140401C4600B5FBF6F902E0DFF86893F5
:1035A00000BF00BF4846BDE8F08770B504460D4631
:1035B0000CB9012070BDD648006800F00F00A84289
:1035C00009D2D3490D700846006800F00F00A842E8
:1035D00001D00120EEE7207800F0020002281DD182
:1035E000207800F00400042805D1C648006840F4A3
:1035F000E050C4490860207800F00800082805D190
:10360000C048006840F46040BE490860BD4800689A
:1036100020F0F000A1680843BA490860207800F063
:103620000100A8B36068012807D1B64808380068CF
:10363000C0F34040B8B90120BCE76068022802D05E
:103640006068032807D1AF4808380068C0F34060BD
:1036500048B90120AEE7AB4808380068C0F3400025
:1036600008B90120A6E7A748006820F003006168B8
:103670000843A4490860FEF73CFB064609E0FEF754
:1036800038FB801B41F28831884202D9032091E740
:1036900007E09C48006800F00C006168B0EB810F07
:1036A000EDD19B48006800F00F00A84209D9984965
:1036B0000D700846006800F00F00A84201D00120FC
:1036C00078E7207800F00400042807D18D480068CE
:1036D00020F4E050E16808438A490860207800F04F
:1036E0000800082808D18748006820F46040216954
:1036F00040EAC10083490860FFF706FF8149096875
:10370000C1F30311834A515CC840834908600F200C
:10371000FCF763FF00204DE770B586B006460C4607
:10372000154646BB00BF0020009076482830006850
:1037300040F001007349283108600846006800F035
:103740000100009000BF00BF881501900220029088
:103750000320049000200390059001A96F48FFF713
:1037600067F96848006820F0EC6044EA0501084306
:103770006449086027E000BF0020009061482830BD
:10378000006840F004005F4928310860084600687E
:1037900000F00400009000BF00BF48150190022017
:1037A00002900320049000200390059001A95C483A
:1037B000FFF73EF95348006820F0784044EAC5011D
:1037C00008435049086006B070BD01205549C864DF
:1037D000704700205349C86470474F4800687047DD
:1037E00000B5FFF7FAFF47490968C1F382214E4A45
:1037F000515CC84000BD00B5FFF7EFFF41490968C3
:10380000C1F34231484A515CC84000BD0F210160FC
:103810003C490839096801F48021B1F5802F03D1B2
:103820004FF4A02141600DE036490839096801F4E0
:103830008031B1F5803F03D14FF48031416001E028
:10384000002141602F490839096801F0010111B1D7
:103850000121C16001E00021C1602A4908390968DD
:10386000C1F3C401016127496831096801F004010D
:10387000042902D1052181600AE0224968310968E2
:1038800001F0010111B10121816001E0002181609D
:103890001C496C31096801F0010111B1012141613C
:1038A00001E00021416117490839096801F0807180
:1038B000B1F1807F02D10221816101E001218161AA
:1038C0001049091F096801F48002C2610D49091FEE
:1038D000096801F03F0202620A49091F0968C1F341
:1038E000881242620749091F096801F4403101F555
:1038F0008031CA0B82620349091F0968C1F3036260
:10390000C2627047083802400024F40040787D010C
:10391000003C0240562C0108E0000020000002405C
:103920000008024000004742662C01080F22026096
:10393000154A126802F003024260134A126802F04C
:10394000F0028260104A126802F4E052C2600E4A2D
:10395000126802F46042D20802610C4A126802F056
:103960000F020A607047704710B50748001D0068D5
:1039700000F08000802805D1FFF7F5FF8020024984
:10398000891D087010BD000008380240003C02404C
:10399000704710B504460CB9012010BD606A00B92B
:1039A00000BF0021A16294F8510028B9002084F8DA
:1039B00050002046FDF7B3FD022084F85100206836
:1039C000006820F0400021680860D4E90101084344
:1039D000E16808432169084361690843218B01F4C8
:1039E00000710843E1690843216A0843A16A08435A
:1039F000216808600421A06901EA1040616A084357
:103A0000216848602068C06920F400602168C861AE
:103A100000206065012084F851000020BDE7704758
:103A200010B504460CB9012010BD022084F85100E5
:103A30002068006820F04000216808602046FDF7FB
:103A40002AFE0020606584F8510000BF84F8500011
:103A500000BF00BFE8E72DE9F04104460E461746D7
:103A60001D46DDF818803FE0681CE0B32DB1FEF77D
:103A700040F9A0EB0800A84236D32068406820F047
:103A8000E000216848606068B0F5827F0DD1A068D1
:103A9000B0F5004F03D0A068B0F5806F05D1206865
:103AA000006820F0400021680860A06AB0F5005F5F
:103AB0000ED100BF206800684DF6FF7108402168F4
:103AC00008602068006840F400502168086000BF6A
:103AD000012084F8510000BF002084F8500000BF8E
:103AE0000320BDE8F081FFE7206880683040B042E5
:103AF00001D1012000E00020B842B5D10020F0E75C
:103B0000F8B504460D4616462B4600228021204675
:103B10000096FFF7A0FF28B1606D40F020006065BF
:103B20000320F8BD0020FCE72DE9F84304460D46CC
:103B300017461E464FF00008C14600BF94F85000DB
:103B4000012802D10220BDE8F883012084F850004A
:103B500000BFFEF7CEF8804694F85100012802D04D
:103B60004FF00209A9E005B117B94FF00109A4E02F
:103B7000032084F85100002060652563A786E7864E
:103B8000A063A087E08760642064A068B0F5004F60
:103B900005D12068006840F48040216808602068F2
:103BA000006800F04000402805D02068006840F020
:103BB000400021680860E068B0F5006F2AD16068B5
:103BC00010B1E08E012806D128882168C860AD1C9C
:103BD000E08E401EE08619E02068806800F0020058
:103BE000022807D128882168C860AD1CE08E401EDD
:103BF000E0860BE03EB1701C40B1FEF77AF8A0EB16
:103C00000800B04202D34FF0030956E0E08E0028CE
:103C1000E2D129E0606810B1E08E012806D1287851
:103C2000216808736D1CE08E401EE08619E0206854
:103C3000806800F00200022807D128782168087304
:103C40006D1CE08E401EE0860BE03EB1701C40B162
:103C5000FEF74FF8A0EB0800B04202D34FF0030983
:103C60002BE0E08E0028E2D13346012202212046DB
:103C7000CDF80080FFF7EFFE10B14FF003091CE014
:103C8000424631462046FFF73BFF20B14FF0010985
:103C90002020606511E0A06850B900BF00200090AE
:103CA0002068C068009020688068009000BF00BF56
:103CB000606D08B14FF0010900BF012084F8510088
:103CC00000BF002084F8500000BF48463BE72DE9C4
:103CD000FE4F04460D4616461F46DDF830804FF075
:103CE000000A0020029081464FF0010B019000BFB6
:103CF00094F85000012802D10220BDE8FE8F012077
:103D000084F8500000BFFDF7F4FF814694F851A0FD
:103D100060680290BAF1010F0BD00298B0F5827F73
:103D200004D1A06810B9BAF1040F02D002200190AA
:103D3000D2E00DB106B117B901200190CCE094F8A2
:103D40005100012802D1052084F85100002060654F
:103D5000A663E787A7872563E786A7862064606454
:103D60002068006800F04000402805D02068006806
:103D700040F0400021680860E068B0F5006F43D172
:103D8000606810B1E08E012806D128882168C860DB
:103D9000AD1CE08E401EE0862FE0BBF1000F10D07E
:103DA000E08E70B12068806800F00200022808D11F
:103DB00028882168C860AD1CE08E401EE0864FF068
:103DC000000BE08F68B12068806800F0010040B10E
:103DD0002068C0683080B61CE08F401EE0874FF03E
:103DE000010B08F1010040B1FDF783FFA0EB0900D2
:103DF000404502D3032001906EE0E08E0028CCD134
:103E0000E08F0028C9D142E0606810B1E08E01283F
:103E100006D12878216808736D1CE08E401EE0866C
:103E20002FE0BBF1000F10D0E08E70B120688068E9
:103E300000F00200022808D115F8010B2168087370
:103E4000E08E401EE0864FF0000BE08F68B12068E6
:103E5000806800F0010040B12068C06806F8010BDE
:103E6000E08F401EE0874FF0010B08F1010040B1E8
:103E7000FDF73FFFA0EB0900404502D3032001906E
:103E80002AE0E08E0028CCD1E08F0028C9D143463B
:103E9000012202212046CDF80090FFF7DCFD10B191
:103EA0000320019018E04A4641462046FFF728FECD
:103EB00020B101200190202060650DE0A06850B97C
:103EC00000BF002000902068C068009020688068D3
:103ED000009000BF00BF00BF012084F8510000BF68
:103EE000002084F8500000BF019806E72DE9F84350
:103EF00004460D4617461E464FF00008C14660684E
:103F0000B0F5827F0DD1A06858B9042084F8510023
:103F10003B462A46294620460096FFF7D8FEBDE8D4
:103F2000F88300BF94F85000012801D10220F6E781
:103F3000012084F8500000BFFDF7DBFE804694F8B6
:103F40005100012802D04FF002097BE005B117B9FA
:103F50004FF0010976E0042084F8510000206065EC
:103F6000A563A787E7872063A086E0862064606456
:103F7000A068B0F5004F05D12068006820F48040AB
:103F8000216808602068006800F04000402805D0E3
:103F90002068006840F0400021680860E068E8B9E7
:103FA00018E02068806800F0010038B12068007BCC
:103FB00028706D1CE08F401EE0870BE03EB1701C46
:103FC00040B1FDF796FEA0EB0800B04202D34FF0DF
:103FD000030937E0E08F0028E3D11CE018E02068F7
:103FE000806800F0010038B12068C0682880AD1CEE
:103FF000E08F401EE0870BE03EB1701C40B1FDF742
:1040000078FEA0EB0800B04202D34FF0030919E09C
:10401000E08F0028E3D16068B0F5827F0DD1A06801
:10402000B0F5004F03D0A068B0F5806F05D12068CF
:10403000006820F0400021680860606D08B14FF012
:10404000010900BF012084F8510000BF002084F85E
:10405000500000BF484662E7704770477CB5044691
:1040600000BFFE4800681821B0FBF1F04FF47A71F0
:10407000B0FBF1F0642148430190FDF73AFE05469C
:1040800000BF0198411E019120B9606D40F02000F1
:10409000606505E02068806800F002000028F0D02C
:1040A00000BF2068406820F0A000216848602A46D0
:1040B00064212046FFF724FD18B1606D40F0200018
:1040C0006065A06850B900BF002000902068C068FB
:1040D000009020688068009000BF00BF012084F835
:1040E0005100606D18B12046FFF7B7FF02E020468F
:1040F000FFF7B2FF7CBD10B50446216B481C20635E
:10410000087821680873E08E401EE086E08E10B9C2
:104110002046FFF7A3FF10BD10B50446206B0088B2
:104120002168C860206B801C2063E08E401EE08602
:10413000E08E10B92046FFF791FF10BD30B5034661
:10414000002400BF93F85000012801D1022030BDA7
:10415000012083F8500000BF01B10AB901243EE0FC
:1041600093F85100012801D0022438E0032083F89D
:1041700051000020586519639A86DA8698639887FB
:10418000D8871864D86810B1B548586401E0B548BC
:1041900058649868B0F5004F05D11868006840F47D
:1041A00080401D682860986830B91868406840F001
:1041B00080001D68686005E01868406840F0A00055
:1041C0001D6868601868006800F04000402805D04D
:1041D0001868006840F040001D68286000BF00BFFC
:1041E000002083F8500000BF2046B0E7704738B584
:1041F00004462068406820F06000216848606068DC
:10420000B0F5827F0DD1A068B0F5004F03D0A06853
:10421000B0F5806F05D12068006820F0400021686B
:104220000860A06850B900BF002000902068C068F6
:10423000009020688068009000BF00BF012084F8D3
:104240005100606D18B92046FFF7D0FF02E020460C
:10425000FFF703FF38BD10B504462068017BA26B51
:10426000501CA0631170E08F401EE087E08F10B9F2
:104270002046FFF7BCFF10BD10B504462068C0689B
:10428000A16B0880A06B801CA063E08F401EE087BC
:10429000E08F10B92046FFF7AAFF10BD70477CB52C
:1042A000044600BF6D4800681821B0FBF1F04FF4E0
:1042B0007A71B0FBF1F0642148430190FDF719FDDC
:1042C00005462068406820F020002168486000BF53
:1042D0000198411E019120B9606D40F02000606599
:1042E00005E02068806800F002000028F0D000BFE0
:1042F0002A4664212046FFF703FC18B1606D40F0A8
:1043000020006065A06850B900BF002000902068C0
:10431000C068009020688068009000BF00BF606D9A
:1043200088B994F85100042806D1012084F851007E
:104330002046FFF75BFF0CE0012084F85100204687
:10434000FFF7ACFF05E0012084F851002046FFF79D
:1043500084FE7CBD10B50446216B481C20630878A0
:1043600021680873E08E401EE086E08E50B9206818
:10437000406820F0800021684860E08F10B9204636
:10438000FFF78DFF10BD10B504462068017BA26BBE
:10439000501CA0631170E08F401EE087E08F50B981
:1043A0002068406820F0600021684860E08E10B905
:1043B0002046FFF774FF10BD10B50446206B00883F
:1043C0002168C860206B801C2063E08E401EE08660
:1043D000E08E50B92068406820F080002168486075
:1043E000E08F10B92046FFF75AFF10BD10B5044604
:1043F0002068C068A16B0880A06B801CA063E08F60
:10440000401EE087E08F50B92068406820F04000EF
:1044100021684860E08E10B92046FFF740FF10BDCC
:10442000F0B5044600250026002700BF94F8500090
:10443000012801D10220F0BD012084F8500000BF06
:1044400094F851506668012D0ED0B6F5827F03D1E5
:10445000A06808B9042D07D002273BE0E000002047
:1044600019410008F740000809B102B10BB9012752
:1044700030E094F85100012802D1052084F8510061
:10448000002060652163A386E386A263A387E38798
:10449000E06820B1FD482064FD48606403E0FD4809
:1044A0002064FD4860642068406840F0E000D4F873
:1044B00000C0CCF804002068006800F040004028EC
:1044C00007D02068006840F04000D4F800C0CCF865
:1044D000000000BF00BF002084F8500000BF384635
:1044E000A9E7F0B504460E4615460027A06868B94E
:1044F0006068B0F5827F09D1042084F851002B4612
:10450000324631462046FFF78BFFF0BD00BF94F8DE
:104510005000012801D10220F7E7012084F8500063
:1045200000BF94F85100012801D0022733E006B102
:104530000DB901272FE0042084F8510000206065A8
:10454000A663A587E5872063A086E0866064E068AF
:1045500010B1D248206401E0D1482064A068B0F5D1
:10456000004F05D12068006820F480402168086071
:104570002068406840F0600021684860206800685A
:1045800000F04000402805D02068006840F040005E
:104590002168086000BF00BF002084F8500000BF01
:1045A0003846B2E770B50546AC6B2068406820F02D
:1045B000030021684860606D40F0100060650120D4
:1045C00084F851002046FFF748FD70BDF8B5054658
:1045D000AC6B0026FDF78DFB06462868006800F4EA
:1045E000807038BB2068406820F002002168486075
:1045F000324664212046FFF783FA18B1606D40F01F
:1046000020006065A06850B900BF002000902068BD
:10461000C068009020688068009000BF00BF002044
:10462000E086012084F85100606D18B12046FFF744
:1046300014FDF8BD2046FFF70FFD00BFF9E77047F6
:1046400070B50446A56B2846FFF7F9FF70BD2DE94C
:10465000F04104460E461546002700BF94F850006E
:10466000012802D10220BDE8F081012084F8500029
:1046700000BF94F85100012801D0022748E006B19C
:104680000DB9012744E0032084F851000020606543
:104690002663A586E586A06360642064A087E08722
:1046A000A068B0F5004F05D12068006840F4804054
:1046B000216808607B48A16C08647B48A16CC863D2
:1046C0007A48A16CC8640020A16C0865E38ED4F818
:1046D00000C00CF10C02216BA06CFDF7ADFE206850
:1046E000006800F04000402805D02068006840F0D5
:1046F0004000216808602068406840F02000216880
:1047000048602068406840F002002168486000BFAF
:1047100000BF002084F8500000BF3846A3E770B502
:104720000546AC6B2868006800F4807010BB2068F8
:10473000406820F00300216848606068B0F5827F1F
:104740000DD1A068B0F5004F03D0A068B0F5806F20
:1047500005D12068006820F0400021680860002032
:10476000E087012084F85100606D18B12046FFF702
:1047700074FC70BD2046FFF739FD00BFF9E77047B4
:1047800070B50446A56B2846FFF7F9FF70BD70B5FC
:104790000546AC6B0026FDF7ACFA064628680068B3
:1047A00000F48070D8B9324664212046FFF7A8F99A
:1047B00018B1606D40F0200060652068406820F00E
:1047C0000300216848600020E086E087012084F82B
:1047D0005100606D18B12046FFF73FFC70BD2046C8
:1047E000FFF75CFD00BFF9E7704770B50446A56BA5
:1047F0002846FFF7F9FF70BD2DE9F04704460E4645
:1048000017461D464FF00008C146C24600BF94F847
:104810005000012802D10220BDE8F087012084F871
:10482000500000BF94F85180D4F80490B8F1010F03
:104830000AD0B9F5827F04D1A06810B9B8F1040F8D
:1048400002D04FF0020A7DE00EB107B115B94FF06A
:10485000010A77E094F85100012802D1052084F87C
:104860005100002060652663A586E586A763A587BD
:10487000E5872064606494F8510004281CD10C483A
:10488000E16C08640B48E16CC8631BE0ED43000871
:10489000B9430008874300085543000879420008DF
:1048A0005742000841460008CD450008A5450008CC
:1048B000814700081F470008FA48E16C0864FA487D
:1048C000E16CC863F948E16CC8640020E16C0865DC
:1048D000E38FD4F800C00CF10C01A26BE06CFDF783
:1048E000ABFD2068406840F001002168486000206E
:1048F000A16C0864A16CC863A16CC864A16C086554
:10490000E38ED4F800C00CF10C02216BA06CFDF713
:1049100093FD2068006800F04000402805D0206822
:10492000006840F04000216808602068406840F05E
:104930002000216848602068406840F0020021683B
:10494000486000BF00BF002084F8500000BF504600
:1049500062E72DE9F04104460E4615460027A0689F
:1049600070B96068B0F5827F0AD1042084F85100E4
:104970002B46324631462046FFF73EFFBDE8F08128
:1049800000BF94F85000012801D10220F6E7012071
:1049900084F8500000BF94F85100012801D002278C
:1049A00047E006B10DB9012743E0042084F8510027
:1049B00000206065A663A587E58720646064A08603
:1049C000E086A068B0F5004F05D12068006820F4AB
:1049D000804021680860B648E16C0864B548E16C25
:1049E000C863B248E16CC8640020E16C0865E38FDD
:1049F000D4F800C00CF10C01A26BE06CFDF71CFDBB
:104A00002068006800F04000402805D02068006859
:104A100040F04000216808602068406840F02000B5
:104A2000216848602068406840F0010021684860C3
:104A300000BF00BF002084F8500000BF38469DE74B
:104A40000CB5002101919C4909681822B1FBF2F1D3
:104A50004FF47A72B1FBF2F164225143009100BF2E
:104A600000994A1E009221B9416D41F02001416533
:104A700005E00168896801F002010029F0D000BF5B
:104A80000168096821F04001026811600168496805
:104A900021F0E001026851600168C968019100BF1E
:104AA0000CBD0168496821F0E001026851600168AD
:104AB000096821F040010268116070471CB5044686
:104AC0007D4800681821B0FBF1F04FF47A71B0FB1B
:104AD000F1F06421484301902068406800F08000B4
:104AE00008B1764860642068406800F0400008B172
:104AF000734820642068406820F0200021684860E6
:104B00002068406800F0020020B92068406800F08A
:104B1000010090B3A06CE0B10020A16C0865A06C0E
:104B2000FDF7D9FC2068406820F002002168486049
:104B300000BF0198411E019120B9606D40F0200036
:104B4000606505E02068806800F002000028F0D071
:104B500000BFE06C88B10020E16C0865E06CFDF7F7
:104B6000BAFC2068006820F04000216808602068D6
:104B7000406820F00100216848600020E087E0865E
:104B8000606500BF00902068C06800902068806861
:104B9000009000BF00BF00BF002000902068806828
:104BA000009000BF00BF012084F8510000201CBD10
:104BB000704738B50546AC6B2068006820F04000AF
:104BC000216808600020E16C08652068406820F0DA
:104BD000010021684860A06C18B1A06C006D00B1A4
:104BE00038BD0020E087E086606500BF0090206847
:104BF000C068009020688068009000BF00BF00BFC0
:104C00000020009020688068009000BF00BF012055
:104C100084F851002046FFF7CBFF00BFE0E77CB5EA
:104C20000546254800681821B0FBF1F04FF47A7171
:104C3000B0FBF1F0642148430190AC6B0020A16C03
:104C400008652068406820F002002168486000BFC5
:104C50000198411E019120B9606D40F0200060650F
:104C600005E02068806800F002000028F0D000BF56
:104C7000E06C18B1E06C006D00B17CBD0020E087F5
:104C8000E086606500BF009020688068009000BFEB
:104C900000BF012084F851002046FFF789FF00BFC4
:104CA000EBE70000EB4700088F470008A545000828
:104CB000814700081F470008E0000020A34A0008C1
:104CC000414A000838B504462068406800F080007A
:104CD00008B1C04860642068406800F0400008B136
:104CE000BD4820642068406820F0200021684860AA
:104CF0000125A06C58B12068406800F0020018B18E
:104D0000B648A16C086502E00020A16C0865E06C63
:104D100058B12068406800F0010018B1B048E16C5B
:104D2000086502E00020E16C08652068406800F03A
:104D30000200D8B12068406800F00100B0B1A06C5A
:104D400040B1A06CFDF720FC18B10020A16C0865F3
:104D500000E00025E06C48B1E06CFDF715FC20B1E7
:104D60000020E16C0865012500E00025206840680E
:104D700000F0020050B1A06C40B1A06CFDF704FC43
:104D800018B10020A16C086500E00025206840688B
:104D900000F0010050B1E06C40B1E06CFDF7F4FBB5
:104DA00018B10020E16C086500E00025012D1BD141
:104DB0000020E087E086606500BF00902068C06842
:104DC000009020688068009000BF00BF00BF0020F6
:104DD000009020688068009000BF00BF012084F828
:104DE00051002046FFF7E4FE002038BD014600BF19
:104DF00091F85000012801D102207047012081F86C
:104E0000500000BF0868406820F003000A68506046
:104E100000BF002081F8500000BF00BFEDE7014651
:104E200000BF91F85000012801D1022070470120F5
:104E300081F8500000BF0868406840F003000A682D
:104E4000506000BF002081F8500000BF00BFEDE7B8
:104E500010B50446A06C10B1A06CFDF73CFBE06CF3
:104E600010B1E06CFDF737FB2068406820F00300CC
:104E700021684860012084F85100002010BD70B501
:104E80000546AC6B0020E087E0862046FFF7E5F89A
:104E900070BDF8B50446206846682068856805F04E
:104EA000400048B905F0010030B106F0400018B1EB
:104EB0002046216C8847F8BD05F0020030B106F0AD
:104EC000800018B12046616C8847F4E705F4B070A3
:104ED000002876D006F02000002872D005F04000AF
:104EE000F0B194F8510003280ED0606D40F004003A
:104EF000606500BF002000902068C06800902068B6
:104F00008068009000BF0BE000BF00200090206888
:104F1000C068009020688068009000BF00BFCAE7AA
:104F200005F0200088B1606D40F00100606500BFB1
:104F3000002000902068806800902068006820F0C1
:104F400040002168086000BF00BF05F4807058B1C0
:104F5000606D40F00800606500BF00200090206890
:104F60008068009000BF00BF606D20B3206840687B
:104F700020F0E00021684860012084F8510006F02C
:104F8000020010B906F00100B8B12068406820F0B6
:104F9000030021684860E06C28B11248E16C0865A4
:104FA000E06CFDF7F1FAA06C28B10E48A16C086521
:104FB000A06CFDF7E9FA03E003E02046FFF74DF8A7
:104FC00079E700BF77E7014691F851007047014645
:104FD000486D7047A34A0008414A00081F4C00086A
:104FE000B34B00087F4E00082DE9F0410446002530
:104FF0002068056925F44055E0680543206805618F
:105000002068C56849F20C6085432169A06808439F
:1050100061690843E169084305432068C560206869
:10502000456925F44075A069054320684561E0693C
:10503000B0F5004F7ED1FE492068884203D0FD497B
:10504000206888425DD1FEF7D6FB00EBC00101EB82
:10505000001061684900B0FBF1F06421B0FBF1F091
:105060000601FEF7C8FB00EBC00101EB0010616810
:105070004900B0FBF1F7FEF7BEFB00EBC00101EB0E
:10508000001061684900B0FBF1F06421B0FBF1F061
:1050900000EBC00101EB0010A7EB8000322101EB17
:1050A000C0006421B0FBF1F000F0F80006EB400610
:1050B000FEF7A1FB00EBC00101EB001061684900A5
:1050C000B0FBF1F7FEF797FB00EBC00101EB00101E
:1050D00061684900B0FBF1F06421B0FBF1F000EB36
:1050E000C00101EB0010A7EB8000322101EBC000F2
:1050F0006421B0FBF1F000F00700304421688860C3
:1051000020E1FEF76DFB00EBC00101EB00106168D0
:105110004900B0FBF1F06421B0FBF1F00601FEF7AD
:105120005FFB00EBC00101EB001061684900B0FBC0
:10513000F1F700E045E0FEF753FB00EBC00101EBA7
:10514000001061684900B0FBF1F06421B0FBF1F0A0
:1051500000EBC00101EB0010A7EB8000322101EB56
:10516000C0006421B0FBF1F000F0F80006EB40064F
:10517000FEF736FB00EBC00101EB0010616849004F
:10518000B0FBF1F7FEF72CFB00EBC00101EB0010C8
:1051900061684900B0FBF1F06421B0FBF1F000EB75
:1051A000C00101EB0010A7EB8000322101EBC00031
:1051B0006421B0FBF1F000F0070030442168886002
:1051C000C0E09B492068884203D09A492068884201
:1051D0005CD1FEF710FB00EBC00101EB0010616831
:1051E0008900B0FBF1F6FEF706FB00EBC00101EB16
:1051F000001061688900B0FBF1F06421B0FBF1F0B0
:1052000000EBC00101EB0010A6EB8000322101EBA6
:1052100000106421B0FBF1F000F0F006FEF7EBFAAD
:1052200000EBC00101EB001061688900B0FBF1F0F8
:105230006421B0FBF1F006EB0016FEF7DCFA00EBA0
:10524000C00101EB001061688900B0FBF1F7FEF7C7
:10525000D2FA00EBC00101EB001061688900B0FBDD
:10526000F1F06421B0FBF1F000EBC00101EB0010A4
:10527000A7EB8000322101EB00106421B0FBF1F0BC
:1052800000F00F003044216888605BE0FEF7A8FA68
:1052900000EBC00101EB001061688900B0FBF1F682
:1052A000FEF79EFA00EBC00101EB00106168890077
:1052B000B0FBF1F06421B0FBF1F000EBC00101EBB9
:1052C0000010A6EB8000322101EB00106421B0FB3E
:1052D000F1F000F0F006FEF783FA00EBC00101EBFD
:1052E000001061688900B0FBF1F06421B0FBF1F0BF
:1052F00006EB0016FEF774FA00EBC00101EB00109C
:1053000061688900B0FBF1F7FEF76AFA00EBC001B3
:1053100001EB001061688900B0FBF1F06421B0FB83
:10532000F1F000EBC00101EB0010A7EB800032218F
:1053300001EB00106421B0FBF1F000F00F003044ED
:1053400021688860BDE8F081704710B504460CB94B
:10535000012010BDA06900B100E000BF94F8390041
:1053600028B9002084F838002046FBF7BFFD242030
:1053700084F839002068C06820F400502168C860B3
:105380002046FFF731FE2068006920F49040216834
:1053900008612068406920F02A002168486120687F
:1053A000C06840F400502168C8600020E0632020FD
:1053B00084F8390084F83A000020CAE710B50446A2
:1053C0000CB9012010BD94F8390028B9002084F8E8
:1053D00038002046FBF78AFD242084F83900206835
:1053E000C06820F400502168C8602046FFF7FCFD2B
:1053F0002068006920F490402168086120684069B5
:1054000020F02200216848612068406940F00800CF
:10541000216848612068C06840F400502168C86075
:105420000020E063202084F8390084F83A0003E08B
:1054300000100140001401400020C3E770B504468D
:105440000D460CB9012070BD94F8390028B9002030
:1054500084F838002046FBF749FD242084F8390001
:105460002068C06820F400502168C8602046FFF71B
:10547000BBFD2068006920F4006021680861206895
:10548000406920F02A00216848612068006940F4E2
:105490008040216808612068006920F020002168B0
:1054A0000861206800692843216808612068C06895
:1054B00040F400502168C8600020E063202084F898
:1054C000390084F83A000020BDE770B504460D4667
:1054D00016460CB9012070BD94F8390028B9002097
:1054E00084F838002046FBF701FD242084F83900B9
:1054F0002068C06820F400502168C8602046FFF78B
:1055000073FD2068006920F49040216808612068DC
:10551000406920F02A00216848612068006920F075
:105520000F0021680861206800692843216808612C
:105530002068C06820F400602168C8602068C068E6
:1055400030432168C8602068C06840F4005021687A
:10555000C8600020E063202084F8390084F83A0015
:105560000020B8E7704710B504460CB9012010BD03
:10557000242084F839002046FBF75EFD0020E0631C
:1055800084F8390084F83A0000BF84F8380000BF7E
:1055900000BFECE72DE9F04104460D46174698465A
:1055A000069E21E0701CF8B12EB1FCF7A2FBA0EB27
:1055B0000800B04218D92068C06820F4D070216873
:1055C000C8602068406920F00100216848612020FF
:1055D00084F8390084F83A0000BF002084F83800CD
:1055E00000BF0320BDE8F081206800682840A84281
:1055F00001D1012000E00020B842D3D00020F1E723
:105600002DE9F84304460D4616461F464FF00009A3
:1056100094F8390020285CD105B116B90120BDE805
:10562000F88300BF94F83800012801D10220F6E782
:10563000012084F8380000BF0020E063212084F8B6
:105640003900FCF756FB8146A684E6842BE0E08C0B
:10565000401EE084A068B0F5805F16D14B46002262
:10566000802120460097FFF795FF08B10320D6E779
:10567000A846B8F80000C0F3080021684860206917
:1056800008B9AD1C0FE06D1C0DE04B4600228021D7
:1056900020460097FFF77EFF08B10320BFE715F80B
:1056A000010B21684860E08C0028D0D14B460022D5
:1056B000402120460097FFF76DFF08B10320AEE7B9
:1056C000202084F8390000BF002084F8380000BF93
:1056D000A5E70220A3E72DE9F84304460D46164648
:1056E0001F464FF0000994F83A00202860D105B118
:1056F00016B90120BDE8F88300BF94F838000128EE
:1057000001D10220F6E7012084F8380000BF002014
:10571000E063222084F83A00FCF7EBFA8146A68584
:10572000E68539E0E08D401EE085A068B0F5805F39
:105730001BD14B460022202120460097FFF72AFF6D
:1057400008B10320D6E7A846206938B92068406828
:10575000C0F30800A8F80000AD1C1DE020684068F8
:10576000C0B2A8F800006D1C16E04B4600222021B4
:1057700020460097FFF70EFF08B10320BAE7206923
:1057800020B92068406805F8010B05E020684068F2
:1057900000F07F0005F8010BE08D0028C2D1202029
:1057A00084F83A0000BF002084F8380000BFA1E769
:1057B00002209FE710B5034693F83900202823D133
:1057C00001B10AB9012010BD00BF93F838000128CB
:1057D00001D10220F7E7012083F8380000BF1962E9
:1057E0009A84DA840020D863212083F8390000BF2E
:1057F000002083F8380000BF1868C06840F08000BF
:105800001C68E0600020DEE70220DCE710B50346FC
:1058100093F83A00202829D101B10AB9012010BD1E
:1058200000BF93F83800012801D10220F7E70120DA
:1058300083F8380000BF99629A85DA850020D86322
:10584000222083F83A0000BF002083F8380000BF10
:105850001868406940F001001C6860611868C06801
:1058600040F490701C68E0600020D8E70220D6E782
:1058700070470168C96821F490710268D1600168BD
:10588000496921F0010102685161202180F83A1034
:1058900070470168C96821F0C0010268D160202109
:1058A00080F83910704770B506460025B46B206843
:1058B0004069C0F3C01594F83900212805D125B1FD
:1058C0000020E0842046FFF7E4FF20684069C0F331
:1058D000801594F83A00222805D125B10020E085F2
:1058E0002046FFF7C6FFE06B40F01000E063204663
:1058F000FFF7BEFF70BD704770B50446A56B284624
:10590000FFF7F9FF70BD704770B50546AC6B2868AE
:10591000006800F4807070B90020E084206840695D
:1059200020F08000216848612068C06840F0400095
:105930002168C86002E02046FFF7E5FF70BDF7B5BB
:105940000446154694F8390020283DD1019800B14D
:105950000DB90120FEBD00BF94F83800012801D127
:105960000220F7E7012084F8380000BF0198206288
:10597000A584E5840020E063212084F83900FA48FA
:10598000216BC863F948216B0864F948216BC8642E
:105990000020216B086501AE23681A1D31682B4673
:1059A000206BFCF749FD6FF040002168086000BFE4
:1059B000002084F8380000BF2068406940F0800073
:1059C000216848610020C5E70220C3E7704770B531
:1059D0000446A56B2846FFF7F9FF70BD704770B508
:1059E0000546AC6B2868006800F48070B0B90020F0
:1059F000E0852068C06820F480702168C860206855
:105A0000406920F00100216848612068406920F069
:105A1000400021684861202084F83A002046FFF7C2
:105A2000DDFF70BD77B581B00446154694F83A00A5
:105A3000202850D1029800B115B9012004B070BDE2
:105A400000BF94F83800012801D10220F6E70120B8
:105A500084F8380000BF0298A062A5850020E063AA
:105A6000222084F83A00C348616BC863C248616B66
:105A70000864BF48616BC8640020616B086502AEB2
:105A800032682368191D2B46606BFCF7D5FC00BFFC
:105A90000020009020680068009020684068009016
:105AA00000BF00BF00BF002084F8380000BF20689E
:105AB000C06840F480702168C8602068406940F088
:105AC0000100216848612068406940F04000216879
:105AD00048610020B2E70220B0E70146002200BF83
